{
  "address": "0xd8c2587Eae9EdC5dd83E2F40e9A1c26af288A7c6",
  "abi": [
    {
      "inputs": [
        {
          "internalType": "address",
          "name": "_romeTreasury",
          "type": "address"
        },
        {
          "internalType": "address",
          "name": "_romeProFactoryStorage",
          "type": "address"
        },
        {
          "internalType": "address",
          "name": "_romeProSubsidyRouter",
          "type": "address"
        },
        {
          "internalType": "address",
          "name": "_romeDAO",
          "type": "address"
        }
      ],
      "stateMutability": "nonpayable",
      "type": "constructor"
    },
    {
      "inputs": [
        {
          "internalType": "address",
          "name": "_payoutToken",
          "type": "address"
        },
        {
          "internalType": "address",
          "name": "_principleToken",
          "type": "address"
        },
        {
          "internalType": "address",
          "name": "_customTreasury",
          "type": "address"
        },
        {
          "internalType": "address",
          "name": "_initialOwner",
          "type": "address"
        },
        {
          "internalType": "uint256[]",
          "name": "_tierCeilings",
          "type": "uint256[]"
        },
        {
          "internalType": "uint256[]",
          "name": "_fees",
          "type": "uint256[]"
        }
      ],
      "name": "createBond",
      "outputs": [
        {
          "internalType": "address",
          "name": "_treasury",
          "type": "address"
        },
        {
          "internalType": "address",
          "name": "_bond",
          "type": "address"
        }
      ],
      "stateMutability": "nonpayable",
      "type": "function"
    },
    {
      "inputs": [
        {
          "internalType": "address",
          "name": "_payoutToken",
          "type": "address"
        },
        {
          "internalType": "address",
          "name": "_principleToken",
          "type": "address"
        },
        {
          "internalType": "address",
          "name": "_initialOwner",
          "type": "address"
        },
        {
          "internalType": "uint256[]",
          "name": "_tierCeilings",
          "type": "uint256[]"
        },
        {
          "internalType": "uint256[]",
          "name": "_fees",
          "type": "uint256[]"
        }
      ],
      "name": "createBondAndTreasury",
      "outputs": [
        {
          "internalType": "address",
          "name": "_treasury",
          "type": "address"
        },
        {
          "internalType": "address",
          "name": "_bond",
          "type": "address"
        }
      ],
      "stateMutability": "nonpayable",
      "type": "function"
    },
    {
      "inputs": [],
      "name": "policy",
      "outputs": [
        {
          "internalType": "address",
          "name": "",
          "type": "address"
        }
      ],
      "stateMutability": "view",
      "type": "function"
    },
    {
      "inputs": [],
      "name": "romeDAO",
      "outputs": [
        {
          "internalType": "address",
          "name": "",
          "type": "address"
        }
      ],
      "stateMutability": "view",
      "type": "function"
    },
    {
      "inputs": [],
      "name": "romeProFactoryStorage",
      "outputs": [
        {
          "internalType": "address",
          "name": "",
          "type": "address"
        }
      ],
      "stateMutability": "view",
      "type": "function"
    },
    {
      "inputs": [],
      "name": "romeProSubsidyRouter",
      "outputs": [
        {
          "internalType": "address",
          "name": "",
          "type": "address"
        }
      ],
      "stateMutability": "view",
      "type": "function"
    },
    {
      "inputs": [],
      "name": "romeTreasury",
      "outputs": [
        {
          "internalType": "address",
          "name": "",
          "type": "address"
        }
      ],
      "stateMutability": "view",
      "type": "function"
    },
    {
      "inputs": [
        {
          "internalType": "address",
          "name": "_newOwner",
          "type": "address"
        }
      ],
      "name": "transferManagment",
      "outputs": [],
      "stateMutability": "nonpayable",
      "type": "function"
    }
  ],
  "transactionHash": "0x2cdcdcda38198d165cda683668c28698a618a0bb41cf59f172ef4ad606463447",
  "args": [
    "0xD4a7FEbD52efda82d6f8acE24908aE0aa5b4f956",
    "0x12bADdDCBA4144b74D4b9d62F80479D29d70c569",
    "0x65101AfADE7fE6503E33a895973c954A1F64B49C",
    "0x2c05531aF9b0Aaf8B61fc676D9eC9CFCce0eE2A2"
  ],
  "numDeployments": 1,
  "solcInputHash": "10305ed83f4b27f9bbd1e3df2042a625",
  "bytecode": "0x61010060405234801561001157600080fd5b506040516149133803806149138339818101604052608081101561003457600080fd5b50805160208201516040830151606090930151600080546001600160a01b03191633179055919290916001600160a01b03841661007057600080fd5b6001600160601b0319606085901b166080526001600160a01b03831661009557600080fd5b6001600160601b0319606084901b1660a0526001600160a01b0382166100ba57600080fd5b6001600160601b0319606083901b1660c0526001600160a01b0381166100df57600080fd5b6001600160601b031960609190911b1660e05250505060805160601c60a05160601c60c05160601c60e05160601c6147ba610159600039806104ba528061058f5280610a1c52508061044e528061056d52806109fa525080610496528061072e5280610bbb52508061047252806109d952506147ba6000f3fe608060405234801561001057600080fd5b50600436106100885760003560e01c806386eb03031161005b57806386eb030314610103578063abefbca31461010b578063ed61e29314610113578063f185a8891461025357610088565b80630505c8c91461008d5780633bfdd7de146100be578063500ac88e146100f357806354720c86146100fb575b600080fd5b610095610343565b6040805173ffffffffffffffffffffffffffffffffffffffff9092168252519081900360200190f35b6100f1600480360360208110156100d457600080fd5b503573ffffffffffffffffffffffffffffffffffffffff1661035f565b005b61009561044c565b610095610470565b610095610494565b6100956104b8565b61020a600480360360c081101561012957600080fd5b73ffffffffffffffffffffffffffffffffffffffff823581169260208101358216926040820135831692606083013516919081019060a08101608082013564010000000081111561017957600080fd5b82018360208201111561018b57600080fd5b803590602001918460208302840111640100000000831117156101ad57600080fd5b9193909290916020810190356401000000008111156101cb57600080fd5b8201836020820111156101dd57600080fd5b803590602001918460208302840111640100000000831117156101ff57600080fd5b5090925090506104dc565b604051808373ffffffffffffffffffffffffffffffffffffffff1681526020018273ffffffffffffffffffffffffffffffffffffffff1681526020019250505060405180910390f35b61020a600480360360a081101561026957600080fd5b73ffffffffffffffffffffffffffffffffffffffff823581169260208101358216926040820135909216918101906080810160608201356401000000008111156102b257600080fd5b8201836020820111156102c457600080fd5b803590602001918460208302840111640100000000831117156102e657600080fd5b91939092909160208101903564010000000081111561030457600080fd5b82018360208201111561031657600080fd5b8035906020019184602083028401116401000000008311171561033857600080fd5b5090925090506108f6565b60005473ffffffffffffffffffffffffffffffffffffffff1681565b60005473ffffffffffffffffffffffffffffffffffffffff1633146103e557604080517f08c379a000000000000000000000000000000000000000000000000000000000815260206004820181905260248201527f4f776e61626c653a2063616c6c6572206973206e6f7420746865206f776e6572604482015290519081900360640190fd5b73ffffffffffffffffffffffffffffffffffffffff811661040557600080fd5b600080547fffffffffffffffffffffffff00000000000000000000000000000000000000001673ffffffffffffffffffffffffffffffffffffffff92909216919091179055565b7f000000000000000000000000000000000000000000000000000000000000000081565b7f000000000000000000000000000000000000000000000000000000000000000081565b7f000000000000000000000000000000000000000000000000000000000000000081565b7f000000000000000000000000000000000000000000000000000000000000000081565b60008054819073ffffffffffffffffffffffffffffffffffffffff16331461056557604080517f08c379a000000000000000000000000000000000000000000000000000000000815260206004820181905260248201527f4f776e61626c653a2063616c6c6572206973206e6f7420746865206f776e6572604482015290519081900360640190fd5b6000888b8b8b7f00000000000000000000000000000000000000000000000000000000000000008c7f00000000000000000000000000000000000000000000000000000000000000008d8d8d8d6040516105be90610d3e565b808c73ffffffffffffffffffffffffffffffffffffffff1681526020018b73ffffffffffffffffffffffffffffffffffffffff1681526020018a73ffffffffffffffffffffffffffffffffffffffff1681526020018973ffffffffffffffffffffffffffffffffffffffff1681526020018873ffffffffffffffffffffffffffffffffffffffff1681526020018773ffffffffffffffffffffffffffffffffffffffff1681526020018673ffffffffffffffffffffffffffffffffffffffff16815260200180602001806020018381038352878782818152602001925060200280828437600083820152601f017fffffffffffffffffffffffffffffffffffffffffffffffffffffffffffffffe0169091018481038352858152602090810191508690860280828437600081840152601f19601f8201169050808301925050509d5050505050505050505050505050604051809103906000f080158015610729573d6000803e3d6000fd5b5090507f000000000000000000000000000000000000000000000000000000000000000073ffffffffffffffffffffffffffffffffffffffff16630e8dbe248c8c8c858d8d8d8d8d6040518a63ffffffff1660e01b8152600401808a73ffffffffffffffffffffffffffffffffffffffff1681526020018973ffffffffffffffffffffffffffffffffffffffff1681526020018873ffffffffffffffffffffffffffffffffffffffff1681526020018773ffffffffffffffffffffffffffffffffffffffff1681526020018673ffffffffffffffffffffffffffffffffffffffff16815260200180602001806020018381038352878782818152602001925060200280828437600083820152601f017fffffffffffffffffffffffffffffffffffffffffffffffffffffffffffffffe0169091018481038352858152602090810191508690860280828437600081840152601f19601f8201169050808301925050509b5050505050505050505050506040805180830381600087803b1580156108b157600080fd5b505af11580156108c5573d6000803e3d6000fd5b505050506040513d60408110156108db57600080fd5b508051602090910151909c909b509950505050505050505050565b60008054819073ffffffffffffffffffffffffffffffffffffffff16331461097f57604080517f08c379a000000000000000000000000000000000000000000000000000000000815260206004820181905260248201527f4f776e61626c653a2063616c6c6572206973206e6f7420746865206f776e6572604482015290519081900360640190fd5b6000898860405161098f90610d4c565b73ffffffffffffffffffffffffffffffffffffffff928316815291166020820152604080519182900301906000f0801580156109cf573d6000803e3d6000fd5b5090506000818b8b7f00000000000000000000000000000000000000000000000000000000000000007f00000000000000000000000000000000000000000000000000000000000000008d7f00000000000000000000000000000000000000000000000000000000000000008e8e8e8e604051610a4b90610d3e565b808c73ffffffffffffffffffffffffffffffffffffffff1681526020018b73ffffffffffffffffffffffffffffffffffffffff1681526020018a73ffffffffffffffffffffffffffffffffffffffff1681526020018973ffffffffffffffffffffffffffffffffffffffff1681526020018873ffffffffffffffffffffffffffffffffffffffff1681526020018773ffffffffffffffffffffffffffffffffffffffff1681526020018673ffffffffffffffffffffffffffffffffffffffff16815260200180602001806020018381038352878782818152602001925060200280828437600083820152601f017fffffffffffffffffffffffffffffffffffffffffffffffffffffffffffffffe0169091018481038352858152602090810191508690860280828437600081840152601f19601f8201169050808301925050509d5050505050505050505050505050604051809103906000f080158015610bb6573d6000803e3d6000fd5b5090507f000000000000000000000000000000000000000000000000000000000000000073ffffffffffffffffffffffffffffffffffffffff16630e8dbe248c8c85858e8e8e8e8e6040518a63ffffffff1660e01b8152600401808a73ffffffffffffffffffffffffffffffffffffffff1681526020018973ffffffffffffffffffffffffffffffffffffffff1681526020018873ffffffffffffffffffffffffffffffffffffffff1681526020018773ffffffffffffffffffffffffffffffffffffffff1681526020018673ffffffffffffffffffffffffffffffffffffffff16815260200180602001806020018381038352878782818152602001925060200280828437600083820152601f017fffffffffffffffffffffffffffffffffffffffffffffffffffffffffffffffe0169091018481038352858152602090810191508690860280828437600081840152601f19601f8201169050808301925050509b5050505050505050505050506040805180830381600087803b1580156108b157600080fd5b612b948062000d5b83390190565b610e9680620038ef8339019056fe6101206040523480156200001257600080fd5b5060405162002b9438038062002b9483398181016040526101208110156200003957600080fd5b815160208301516040808501516060860151608087015160a088015160c089015160e08a0180519651989a9799959894979396929591949391820192846401000000008211156200008957600080fd5b9083019060208201858111156200009f57600080fd5b8251866020820283011164010000000082111715620000bd57600080fd5b82525081516020918201928201910280838360005b83811015620000ec578181015183820152602001620000d2565b50505050905001604052602001805160405193929190846401000000008211156200011657600080fd5b9083019060208201858111156200012c57600080fd5b82518660208202830111640100000000821117156200014a57600080fd5b82525081516020918201928201910280838360005b83811015620001795781810151838201526020016200015f565b50505050919091016040525050600080546001600160a01b0319163317905550506001600160a01b038916620001ae57600080fd5b6001600160601b031960608a901b1660c0526001600160a01b038816620001d457600080fd5b6001600160601b0319606089901b166080526001600160a01b038716620001fa57600080fd5b6001600160601b0319606088901b1660a0526001600160a01b0386166200022057600080fd5b600180546001600160a01b0319166001600160a01b038881169190911790915585166200024c57600080fd5b6001600160601b0319606086901b16610100526001600160a01b0384166200027357600080fd5b600080546001600160a01b0319166001600160a01b038681169190911790915583166200029f57600080fd5b6001600160601b0319606084901b1660e0528051825114620002f35760405162461bcd60e51b815260040180806020018281038252602781526020018062002b6d6027913960400191505060405180910390fd5b60005b82518110156200036e57600e60405180604001604052808584815181106200031a57fe5b602002602001015181526020018484815181106200033457fe5b60209081029190910181015190915282546001818101855560009485529382902083516002909202019081559101519082015501620002f6565b5050505050505050505060805160601c60a05160601c60c05160601c60e05160601c6101005160601c612765620004086000398061180f52508061087b525080610cc25280610f9252806110a7525080610cfe5280610f2c5280610f56528061106f525080610dae5280611163528061146b528061163752806118ce528061196e5280611a215280611af95280611fe352506127656000f3fe608060405234801561001057600080fd5b50600436106101ae5760003560e01c80637cbe044c116100ee578063cea55f5711610097578063e0176de811610071578063e0176de8146104e6578063e392a262146104ee578063f5c2ab5b146104f6578063fc7b9c18146104fe576101ae565b8063cea55f57146104a3578063d5025625146104ab578063d7ccfb0b146104de576101ae565b8063a50603b2116100c8578063a50603b214610407578063a9bc6b7114610442578063cd1234b31461044a576101ae565b80637cbe044c1461038d5780638dbdbe6d1461039557806395a2251f146103d4576101ae565b80632d8a37511161015b578063507930ec11610135578063507930ec1461032d5780635c39f7cf14610360578063759076e5146103685780637927ebf814610370576101ae565b80632d8a3751146102925780633bfdd7de146102c5578063451ee4a1146102f8576101ae565b80631a3d00681161018c5780631a3d0068146102315780631e321a0f146102645780632bab6bde1461028a576101ae565b806301b88ee8146101b35780630505c8c9146101f85780630a74848914610229575b600080fd5b6101e6600480360360208110156101c957600080fd5b503573ffffffffffffffffffffffffffffffffffffffff16610506565b60408051918252519081900360200190f35b61020061056c565b6040805173ffffffffffffffffffffffffffffffffffffffff9092168252519081900360200190f35b6101e6610588565b6102626004803603608081101561024757600080fd5b508035151590602081013590604081013590606001356105c0565b005b6102626004803603604081101561027a57600080fd5b5060ff81351690602001356106ff565b6101e661085d565b610262600480360360208110156102a857600080fd5b503573ffffffffffffffffffffffffffffffffffffffff16610863565b610262600480360360208110156102db57600080fd5b503573ffffffffffffffffffffffffffffffffffffffff16610934565b610300610a07565b60408051951515865260208601949094528484019290925260608401526080830152519081900360a00190f35b6101e66004803603602081101561034357600080fd5b503573ffffffffffffffffffffffffffffffffffffffff16610a1f565b6101e6610abe565b6101e6610b39565b6101e66004803603602081101561038657600080fd5b5035610b4f565b6101e6610ba2565b6101e6600480360360608110156103ab57600080fd5b508035906020810135906040013573ffffffffffffffffffffffffffffffffffffffff16610ba8565b6101e6600480360360208110156103ea57600080fd5b503573ffffffffffffffffffffffffffffffffffffffff16611375565b610262600480360360c081101561041d57600080fd5b5080359060208101359060408101359060608101359060808101359060a001356116fd565b6101e66117f5565b61047d6004803603602081101561046057600080fd5b503573ffffffffffffffffffffffffffffffffffffffff1661188e565b604080519485526020850193909352838301919091526060830152519081900360800190f35b6101e66118b5565b6104b3611a03565b6040805195865260208601949094528484019290925260608401526080830152519081900360a00190f35b6101e6611a15565b6101e6611ae5565b6101e6611b8f565b6101e6611bd4565b6101e6611bda565b60008061051283610a1f565b73ffffffffffffffffffffffffffffffffffffffff84166000908152600f6020526040902054909150612710821061054c57809250610565565b61056261271061055c8385611be0565b90611c42565b92505b5050919050565b60005473ffffffffffffffffffffffffffffffffffffffff1681565b60006105bb6105ad620f424061055c61059f610abe565b6105a7611a15565b90611be0565b6105b5611a15565b90611c84565b905090565b60005473ffffffffffffffffffffffffffffffffffffffff16331461062c576040805162461bcd60e51b815260206004820181905260248201527f4f776e61626c653a2063616c6c6572206973206e6f7420746865206f776e6572604482015290519081900360640190fd5b600454610642906103e89061055c90601e611be0565b831115610696576040805162461bcd60e51b815260206004820152601360248201527f496e6372656d656e7420746f6f206c6172676500000000000000000000000000604482015290519081900360640190fd5b6040805160a0810182529415158086526020860185905290850183905260608501829052436080909501859052600980547fffffffffffffffffffffffffffffffffffffffffffffffffffffffffffffff00169091179055600a92909255600b55600c55600d55565b60005473ffffffffffffffffffffffffffffffffffffffff16331461076b576040805162461bcd60e51b815260206004820181905260248201527f4f776e61626c653a2063616c6c6572206973206e6f7420746865206f776e6572604482015290519081900360640190fd5b600082600281111561077957fe5b14156107ca576127108110156107c05760405162461bcd60e51b81526004018080602001828103825260248152602001806126e26024913960400191505060405180910390fd5b6005819055610859565b60018260028111156107d857fe5b141561083f576103e8811115610835576040805162461bcd60e51b815260206004820181905260248201527f5061796f75742063616e6e6f742062652061626f766520312070657263656e74604482015290519081900360640190fd5b6007819055610859565b600282600281111561084d57fe5b14156108595760088190555b5050565b60035481565b3373ffffffffffffffffffffffffffffffffffffffff7f000000000000000000000000000000000000000000000000000000000000000016146108ed576040805162461bcd60e51b815260206004820152600d60248201527f4f6e6c7920526f6d652044414f00000000000000000000000000000000000000604482015290519081900360640190fd5b600180547fffffffffffffffffffffffff00000000000000000000000000000000000000001673ffffffffffffffffffffffffffffffffffffffff92909216919091179055565b60005473ffffffffffffffffffffffffffffffffffffffff1633146109a0576040805162461bcd60e51b815260206004820181905260248201527f4f776e61626c653a2063616c6c6572206973206e6f7420746865206f776e6572604482015290519081900360640190fd5b73ffffffffffffffffffffffffffffffffffffffff81166109c057600080fd5b600080547fffffffffffffffffffffffff00000000000000000000000000000000000000001673ffffffffffffffffffffffffffffffffffffffff92909216919091179055565b600954600a54600b54600c54600d5460ff9094169385565b6000610a2961261c565b5073ffffffffffffffffffffffffffffffffffffffff82166000908152600f602090815260408083208151608081018352815481526001820154938101939093526002810154918301829052600301546060830152909190610a8c904390611cde565b60208301519091508015610ab157610aaa8161055c84612710611be0565b9350610ab6565b600093505b505050919050565b600e54600090815b81811015610b3357600e8181548110610adb57fe5b9060005260206000209060020201600001546002541080610afe57506001820381145b15610b2b57600e8181548110610b1057fe5b90600052602060002090600202016001015492505050610b36565b600101610ac6565b50505b90565b60006105bb610b46611b8f565b60105490611cde565b600080610b7464174876e80061055c610b6f86610b6a611a15565b611d20565b611ee1565b9050610b99610b92620f424061055c610b8b610abe565b8590611be0565b8290611cde565b9150505b919050565b60025481565b600073ffffffffffffffffffffffffffffffffffffffff8216610c12576040805162461bcd60e51b815260206004820152600f60248201527f496e76616c696420616464726573730000000000000000000000000000000000604482015290519081900360640190fd5b610c1a611f0e565b6008546010541115610c73576040805162461bcd60e51b815260206004820152601460248201527f4d61782063617061636974792072656163686564000000000000000000000000604482015290519081900360640190fd5b6000610c7d610588565b905080841015610cbe5760405162461bcd60e51b81526004018080602001828103825260238152602001806126bf6023913960400191505060405180910390fd5b60007f000000000000000000000000000000000000000000000000000000000000000073ffffffffffffffffffffffffffffffffffffffff1663d1b317e57f0000000000000000000000000000000000000000000000000000000000000000886040518363ffffffff1660e01b8152600401808373ffffffffffffffffffffffffffffffffffffffff1681526020018281526020019250505060206040518083038186803b158015610d6f57600080fd5b505afa158015610d83573d6000803e3d6000fd5b505050506040513d6020811015610d9957600080fd5b505190506000610da882611f22565b905060647f000000000000000000000000000000000000000000000000000000000000000073ffffffffffffffffffffffffffffffffffffffff1663313ce5676040518163ffffffff1660e01b815260040160206040518083038186803b158015610e1257600080fd5b505afa158015610e26573d6000803e3d6000fd5b505050506040513d6020811015610e3c57600080fd5b505160ff16600a0a81610e4b57fe5b04811015610ea0576040805162461bcd60e51b815260206004820152600e60248201527f426f6e6420746f6f20736d616c6c000000000000000000000000000000000000604482015290519081900360640190fd5b610ea8611ae5565b811115610efc576040805162461bcd60e51b815260206004820152600e60248201527f426f6e6420746f6f206c61726765000000000000000000000000000000000000604482015290519081900360640190fd5b6000610f10620f424061055c610b8b610abe565b9050610f5473ffffffffffffffffffffffffffffffffffffffff7f00000000000000000000000000000000000000000000000000000000000000001633308b611f3c565b7f000000000000000000000000000000000000000000000000000000000000000073ffffffffffffffffffffffffffffffffffffffff1663095ea7b37f00000000000000000000000000000000000000000000000000000000000000008a6040518363ffffffff1660e01b8152600401808373ffffffffffffffffffffffffffffffffffffffff16815260200182815260200192505050602060405180830381600087803b15801561100557600080fd5b505af1158015611019573d6000803e3d6000fd5b505050506040513d602081101561102f57600080fd5b5050604080517f0efe6a8b00000000000000000000000000000000000000000000000000000000815273ffffffffffffffffffffffffffffffffffffffff7f000000000000000000000000000000000000000000000000000000000000000081166004830152602482018b90526044820185905291517f000000000000000000000000000000000000000000000000000000000000000090921691630efe6a8b9160648082019260009290919082900301818387803b1580156110f157600080fd5b505af1158015611105573d6000803e3d6000fd5b50505050806000146111db57600154604080517fa9059cbb00000000000000000000000000000000000000000000000000000000815273ffffffffffffffffffffffffffffffffffffffff92831660048201526024810184905290517f00000000000000000000000000000000000000000000000000000000000000009092169163a9059cbb916044808201926020929091908290030181600087803b1580156111ae57600080fd5b505af11580156111c2573d6000803e3d6000fd5b505050506040513d60208110156111d857600080fd5b50505b6010546111e89084611c84565b6010556040805160808101909152806112306112048585611cde565b73ffffffffffffffffffffffffffffffffffffffff8a166000908152600f602052604090205490611c84565b8152600554602082015243604082015260600161124b610588565b905273ffffffffffffffffffffffffffffffffffffffff87166000908152600f6020908152604091829020835181559083015160018201559082015160028201556060909101516003909101556005547fb7ce5a2d90f1705ca02547b0eb827724683e0df3b809477ae4326d0eefed0bc090899084906112cc904390611c84565b60408051938452602084019290925282820152519081900360600190a17f2cb17bd1fd2a1fecfefae2de1e6a59194abaa62179652924ccdca01617f0bf16611312611fd7565b61131a6118b5565b6040805192835260208301919091528051918290030190a160025461133f9089611c84565b60025560035461134f9083611c84565b60035560125461135f9083611c84565b60125561136a61206d565b509695505050505050565b600061137f61261c565b5073ffffffffffffffffffffffffffffffffffffffff82166000908152600f60209081526040808320815160808101835281548152600182015493810193909352600281015491830191909152600301546060820152906113df84610a1f565b905061271081106115355773ffffffffffffffffffffffffffffffffffffffff84166000818152600f602090815260408083208381556001810184905560028101849055600301839055855181519485529184019190915282810191909152517f51c99f515c87b0d95ba97f616edd182e8f161c4932eac17c6fefe9dab58b77b19181900360600190a17f000000000000000000000000000000000000000000000000000000000000000073ffffffffffffffffffffffffffffffffffffffff1663a9059cbb8584600001516040518363ffffffff1660e01b8152600401808373ffffffffffffffffffffffffffffffffffffffff16815260200182815260200192505050602060405180830381600087803b1580156114fe57600080fd5b505af1158015611512573d6000803e3d6000fd5b505050506040513d602081101561152857600080fd5b505090519150610b9d9050565b815160009061154c906127109061055c9085611be0565b90506040518060800160405280611570838660000151611cde90919063ffffffff16565b815260200161159a61158f866040015143611cde90919063ffffffff16565b602087015190611cde565b81524360208083019190915260608087015160409384015273ffffffffffffffffffffffffffffffffffffffff89166000818152600f845284902085518082558685015160018301558686015160028301559583015160039091015583519081529182018590528183019390935290517f51c99f515c87b0d95ba97f616edd182e8f161c4932eac17c6fefe9dab58b77b1929181900390910190a17f000000000000000000000000000000000000000000000000000000000000000073ffffffffffffffffffffffffffffffffffffffff1663a9059cbb86836040518363ffffffff1660e01b8152600401808373ffffffffffffffffffffffffffffffffffffffff16815260200182815260200192505050602060405180830381600087803b1580156116c657600080fd5b505af11580156116da573d6000803e3d6000fd5b505050506040513d60208110156116f057600080fd5b50909350610b9d92505050565b60005473ffffffffffffffffffffffffffffffffffffffff163314611769576040805162461bcd60e51b815260206004820181905260248201527f4f776e61626c653a2063616c6c6572206973206e6f7420746865206f776e6572604482015290519081900360640190fd5b611771610b39565b156117ad5760405162461bcd60e51b815260040180806020018281038252602181526020018061267d6021913960400191505060405180910390fd5b6040805160a081018252878152602081018790529081018590526060810184905260800182905260049590955560059390935560069190915560075560085560105543601155565b60003373ffffffffffffffffffffffffffffffffffffffff7f00000000000000000000000000000000000000000000000000000000000000001614611881576040805162461bcd60e51b815260206004820152601760248201527f4f6e6c79207375627369647920636f6e74726f6c6c6572000000000000000000604482015290519081900360640190fd5b5060128054600090915590565b600f6020526000908152604090208054600182015460028301546003909301549192909184565b60006105bb670de0b6b3a764000061055c610b6f61196c7f000000000000000000000000000000000000000000000000000000000000000073ffffffffffffffffffffffffffffffffffffffff1663313ce5676040518163ffffffff1660e01b815260040160206040518083038186803b15801561193257600080fd5b505afa158015611946573d6000803e3d6000fd5b505050506040513d602081101561195c57600080fd5b505160ff16600a0a6105a7610b39565b7f000000000000000000000000000000000000000000000000000000000000000073ffffffffffffffffffffffffffffffffffffffff166318160ddd6040518163ffffffff1660e01b815260040160206040518083038186803b1580156119d257600080fd5b505afa1580156119e6573d6000803e3d6000fd5b505050506040513d60208110156119fc57600080fd5b5051611d20565b60045460055460065460075460085485565b6000611ad1611aba60057f000000000000000000000000000000000000000000000000000000000000000073ffffffffffffffffffffffffffffffffffffffff1663313ce5676040518163ffffffff1660e01b815260040160206040518083038186803b158015611a8557600080fd5b505afa158015611a99573d6000803e3d6000fd5b505050506040513d6020811015611aaf57600080fd5b505160ff1690611cde565b600a0a61055c611ac86118b5565b60045490611be0565b600654909150811015610b36575060065490565b60006105bb620186a061055c6004600301547f000000000000000000000000000000000000000000000000000000000000000073ffffffffffffffffffffffffffffffffffffffff166318160ddd6040518163ffffffff1660e01b815260040160206040518083038186803b158015611b5d57600080fd5b505afa158015611b71573d6000803e3d6000fd5b505050506040513d6020811015611b8757600080fd5b505190611be0565b600080611ba760115443611cde90919063ffffffff16565b600554601054919250611bbe9161055c9084611be0565b9150601054821115611bd05760105491505b5090565b60115481565b60105481565b600082611bef57506000611c3c565b82820282848281611bfc57fe5b0414611c395760405162461bcd60e51b815260040180806020018281038252602181526020018061269e6021913960400191505060405180910390fd5b90505b92915050565b6000611c3983836040518060400160405280601a81526020017f536166654d6174683a206469766973696f6e206279207a65726f00000000000081525061214d565b600082820183811015611c39576040805162461bcd60e51b815260206004820152601b60248201527f536166654d6174683a206164646974696f6e206f766572666c6f770000000000604482015290519081900360640190fd5b6000611c3983836040518060400160405280601e81526020017f536166654d6174683a207375627472616374696f6e206f766572666c6f7700008152506121ef565b611d28612644565b60008211611d675760405162461bcd60e51b81526004018080602001828103825260268152602001806126576026913960400191505060405180910390fd5b82611d815750604080516020810190915260008152611c3c565b71ffffffffffffffffffffffffffffffffffff8311611e5257600082607085901b81611da957fe5b0490507bffffffffffffffffffffffffffffffffffffffffffffffffffffffff811115611e1d576040805162461bcd60e51b815260206004820152601e60248201527f4669786564506f696e743a3a6672616374696f6e3a206f766572666c6f770000604482015290519081900360640190fd5b6040518060200160405280827bffffffffffffffffffffffffffffffffffffffffffffffffffffffff16815250915050611c3c565b6000611e6e846e01000000000000000000000000000085612249565b90507bffffffffffffffffffffffffffffffffffffffffffffffffffffffff811115611e1d576040805162461bcd60e51b815260206004820152601e60248201527f4669786564506f696e743a3a6672616374696f6e3a206f766572666c6f770000604482015290519081900360640190fd5b516612725dd1d243ab7bffffffffffffffffffffffffffffffffffffffffffffffffffffffff9091160490565b611f19610b46611b8f565b60105543601155565b6000611c3c64174876e80061055c610b6f85610b6a611a15565b6040805173ffffffffffffffffffffffffffffffffffffffff80861660248301528416604482015260648082018490528251808303909101815260849091019091526020810180517bffffffffffffffffffffffffffffffffffffffffffffffffffffffff167f23b872dd00000000000000000000000000000000000000000000000000000000179052611fd19085906122e9565b50505050565b6000612047611aba60057f000000000000000000000000000000000000000000000000000000000000000073ffffffffffffffffffffffffffffffffffffffff1663313ce5676040518163ffffffff1660e01b815260040160206040518083038186803b158015611a8557600080fd5b60065490915081101561205d5750600654610b36565b60065415610b3657600060065590565b600c54600d546000916120809190611c84565b600a54909150158015906120945750804310155b1561214a5760045460095460ff16156120ce57600a546004546120b691611c84565b6004819055600b54116120c9576000600a555b6120f0565b600a546004546120dd91611cde565b6004819055600b54106120f0576000600a555b43600d55600454600a546009546040805185815260208101949094528381019290925260ff1615156060830152517fb923e581a0f83128e9e1d8297aa52b18d6744310476e0b54509c054cd7a93b2a9181900360800190a1505b50565b600081836121d95760405162461bcd60e51b81526004018080602001828103825283818151815260200191508051906020019080838360005b8381101561219e578181015183820152602001612186565b50505050905090810190601f1680156121cb5780820380516001836020036101000a031916815260200191505b509250505060405180910390fd5b5060008385816121e557fe5b0495945050505050565b600081848411156122415760405162461bcd60e51b815260206004820181815283516024840152835190928392604490910191908501908083836000831561219e578181015183820152602001612186565b505050900390565b600080600061225886866123ac565b915091506000848061226657fe5b86880990508281111561227a576001820391505b80830392508482106122d3576040805162461bcd60e51b815260206004820152601a60248201527f46756c6c4d6174683a3a6d756c4469763a206f766572666c6f77000000000000604482015290519081900360640190fd5b6122de8383876123f7565b979650505050505050565b606061234b826040518060400160405280602081526020017f5361666545524332303a206c6f772d6c6576656c2063616c6c206661696c65648152508573ffffffffffffffffffffffffffffffffffffffff166124679092919063ffffffff16565b8051909150156123a75780806020019051602081101561236a57600080fd5b50516123a75760405162461bcd60e51b815260040180806020018281038252602a815260200180612706602a913960400191505060405180910390fd5b505050565b600080807fffffffffffffffffffffffffffffffffffffffffffffffffffffffffffffffff848609905083850292508281039150828110156123ef576001820391505b509250929050565b6000818103821680838161240757fe5b04925080858161241357fe5b04945080816000038161242257fe5b60028581038087028203028087028203028087028203028087028203028087028203028087028203029586029003909402930460010193909302939093010292915050565b6060612476848460008561247e565b949350505050565b606061248985612616565b6124da576040805162461bcd60e51b815260206004820152601d60248201527f416464726573733a2063616c6c20746f206e6f6e2d636f6e7472616374000000604482015290519081900360640190fd5b600060608673ffffffffffffffffffffffffffffffffffffffff1685876040518082805190602001908083835b6020831061254457805182527fffffffffffffffffffffffffffffffffffffffffffffffffffffffffffffffe09092019160209182019101612507565b6001836020036101000a03801982511681845116808217855250505050505090500191505060006040518083038185875af1925050503d80600081146125a6576040519150601f19603f3d011682016040523d82523d6000602084013e6125ab565b606091505b509150915081156125bf5791506124769050565b8051156125cf5780518082602001fd5b60405162461bcd60e51b815260206004820181815286516024840152865187939192839260440191908501908083836000831561219e578181015183820152602001612186565b3b151590565b6040518060800160405280600081526020016000815260200160008152602001600081525090565b6040805160208101909152600081529056fe4669786564506f696e743a3a6672616374696f6e3a206469766973696f6e206279207a65726f44656274206d757374206265203020666f7220696e697469616c697a6174696f6e536166654d6174683a206d756c7469706c69636174696f6e206f766572666c6f77536c697070616765206c696d69743a206d6f7265207468616e206d617820707269636556657374696e67206d757374206265206c6f6e676572207468616e20333620686f7572735361666545524332303a204552433230206f7065726174696f6e20646964206e6f742073756363656564a264697066735822122002e708ce620016d442ff0350ff52b51c6130e2041811804be53a13973ca4112164736f6c6343000705003374696572206c656e67746820616e6420666565206c656e677468206e6f74207468652073616d6560a060405234801561001057600080fd5b50604051610e96380380610e968339818101604052604081101561003357600080fd5b508051602090910151600080546001600160a01b031916331790556001600160a01b03821661006157600080fd5b6001600160601b0319606083901b166080526001600160a01b03811661008657600080fd5b600080546001600160a01b039092166001600160a01b03199092169190911790555060805160601c610dc76100cf60003980610302528061043252806105185250610dc76000f3fe608060405234801561001057600080fd5b50600436106100885760003560e01c80634efa82b61161005b5780634efa82b614610179578063d1b317e514610181578063d9caed12146101cc578063f95c23061461020f57610088565b80630505c8c91461008d5780630efe6a8b146100be57806324705db3146100ff5780633bfdd7de14610146575b600080fd5b610095610242565b6040805173ffffffffffffffffffffffffffffffffffffffff9092168252519081900360200190f35b6100fd600480360360608110156100d457600080fd5b5073ffffffffffffffffffffffffffffffffffffffff813516906020810135906040013561025e565b005b6101326004803603602081101561011557600080fd5b503573ffffffffffffffffffffffffffffffffffffffff1661032e565b604080519115158252519081900360200190f35b6100fd6004803603602081101561015c57600080fd5b503573ffffffffffffffffffffffffffffffffffffffff16610343565b610095610430565b6101ba6004803603604081101561019757600080fd5b5073ffffffffffffffffffffffffffffffffffffffff8135169060200135610454565b60408051918252519081900360200190f35b6100fd600480360360608110156101e257600080fd5b5073ffffffffffffffffffffffffffffffffffffffff8135811691602081013590911690604001356105a5565b6100fd6004803603602081101561022557600080fd5b503573ffffffffffffffffffffffffffffffffffffffff166106a8565b60005473ffffffffffffffffffffffffffffffffffffffff1681565b3360009081526001602052604090205460ff166102c6576040517f08c379a0000000000000000000000000000000000000000000000000000000008152600401808060200182810382526021815260200180610d476021913960400191505060405180910390fd5b6102e873ffffffffffffffffffffffffffffffffffffffff84163330856107c2565b61032973ffffffffffffffffffffffffffffffffffffffff7f000000000000000000000000000000000000000000000000000000000000000016338361085d565b505050565b60016020526000908152604090205460ff1681565b60005473ffffffffffffffffffffffffffffffffffffffff1633146103c957604080517f08c379a000000000000000000000000000000000000000000000000000000000815260206004820181905260248201527f4f776e61626c653a2063616c6c6572206973206e6f7420746865206f776e6572604482015290519081900360640190fd5b73ffffffffffffffffffffffffffffffffffffffff81166103e957600080fd5b600080547fffffffffffffffffffffffff00000000000000000000000000000000000000001673ffffffffffffffffffffffffffffffffffffffff92909216919091179055565b7f000000000000000000000000000000000000000000000000000000000000000081565b600061059e8373ffffffffffffffffffffffffffffffffffffffff1663313ce5676040518163ffffffff1660e01b815260040160206040518083038186803b15801561049f57600080fd5b505afa1580156104b3573d6000803e3d6000fd5b505050506040513d60208110156104c957600080fd5b5051604080517f313ce567000000000000000000000000000000000000000000000000000000008152905160ff909216600a0a916105989173ffffffffffffffffffffffffffffffffffffffff7f0000000000000000000000000000000000000000000000000000000000000000169163313ce56791600480820192602092909190829003018186803b15801561055f57600080fd5b505afa158015610573573d6000803e3d6000fd5b505050506040513d602081101561058957600080fd5b5051859060ff16600a0a6108ea565b90610966565b9392505050565b60005473ffffffffffffffffffffffffffffffffffffffff16331461062b57604080517f08c379a000000000000000000000000000000000000000000000000000000000815260206004820181905260248201527f4f776e61626c653a2063616c6c6572206973206e6f7420746865206f776e6572604482015290519081900360640190fd5b61064c73ffffffffffffffffffffffffffffffffffffffff8416838361085d565b6040805173ffffffffffffffffffffffffffffffffffffffff80861682528416602082015280820183905290517f9b1bfa7fa9ee420a16e124f794c35ac9f90472acc99140eb2f6447c714cad8eb9181900360600190a1505050565b60005473ffffffffffffffffffffffffffffffffffffffff16331461072e57604080517f08c379a000000000000000000000000000000000000000000000000000000000815260206004820181905260248201527f4f776e61626c653a2063616c6c6572206973206e6f7420746865206f776e6572604482015290519081900360640190fd5b73ffffffffffffffffffffffffffffffffffffffff811660008181526001602090815260409182902080547fffffffffffffffffffffffffffffffffffffffffffffffffffffffffffffff00811660ff91821615179182905583519485521615159083015280517f661abc66f13f27ca765c6a753171d10aa4861f03f1b506c5b1297a2dc80cf8ee9281900390910190a150565b6040805173ffffffffffffffffffffffffffffffffffffffff80861660248301528416604482015260648082018490528251808303909101815260849091019091526020810180517bffffffffffffffffffffffffffffffffffffffffffffffffffffffff167f23b872dd000000000000000000000000000000000000000000000000000000001790526108579085906109a8565b50505050565b6040805173ffffffffffffffffffffffffffffffffffffffff8416602482015260448082018490528251808303909101815260649091019091526020810180517bffffffffffffffffffffffffffffffffffffffffffffffffffffffff167fa9059cbb000000000000000000000000000000000000000000000000000000001790526103299084906109a8565b6000826108f957506000610960565b8282028284828161090657fe5b041461095d576040517f08c379a0000000000000000000000000000000000000000000000000000000008152600401808060200182810382526021815260200180610d266021913960400191505060405180910390fd5b90505b92915050565b600061059e83836040518060400160405280601a81526020017f536166654d6174683a206469766973696f6e206279207a65726f000000000000815250610a80565b6060610a0a826040518060400160405280602081526020017f5361666545524332303a206c6f772d6c6576656c2063616c6c206661696c65648152508573ffffffffffffffffffffffffffffffffffffffff16610b3c9092919063ffffffff16565b80519091501561032957808060200190516020811015610a2957600080fd5b5051610329576040517f08c379a000000000000000000000000000000000000000000000000000000000815260040180806020018281038252602a815260200180610d68602a913960400191505060405180910390fd5b60008183610b26576040517f08c379a00000000000000000000000000000000000000000000000000000000081526004018080602001828103825283818151815260200191508051906020019080838360005b83811015610aeb578181015183820152602001610ad3565b50505050905090810190601f168015610b185780820380516001836020036101000a031916815260200191505b509250505060405180910390fd5b506000838581610b3257fe5b0495945050505050565b6060610b4b8484600085610b53565b949350505050565b6060610b5e85610d1f565b610bc957604080517f08c379a000000000000000000000000000000000000000000000000000000000815260206004820152601d60248201527f416464726573733a2063616c6c20746f206e6f6e2d636f6e7472616374000000604482015290519081900360640190fd5b600060608673ffffffffffffffffffffffffffffffffffffffff1685876040518082805190602001908083835b60208310610c3357805182527fffffffffffffffffffffffffffffffffffffffffffffffffffffffffffffffe09092019160209182019101610bf6565b6001836020036101000a03801982511681845116808217855250505050505090500191505060006040518083038185875af1925050503d8060008114610c95576040519150601f19603f3d011682016040523d82523d6000602084013e610c9a565b606091505b50915091508115610cae579150610b4b9050565b805115610cbe5780518082602001fd5b6040517f08c379a0000000000000000000000000000000000000000000000000000000008152602060048201818152865160248401528651879391928392604401919085019080838360008315610aeb578181015183820152602001610ad3565b3b15159056fe536166654d6174683a206d756c7469706c69636174696f6e206f766572666c6f776d73672e73656e646572206973206e6f74206120626f6e6420636f6e74726163745361666545524332303a204552433230206f7065726174696f6e20646964206e6f742073756363656564a2646970667358221220e256b621af41d1b530c7cfa5f6ca9de6bda452bcad1282d2770557915984874a64736f6c63430007050033a2646970667358221220660ec39fbc5c10de8cb6ccc74ced52b56cf47c105a0607b18b2d3b4ca578bfb464736f6c63430007050033",
  "devdoc": {
    "kind": "dev",
    "methods": {
      "createBond(address,address,address,address,uint256[],uint256[])": {
        "params": {
          "_customTreasury": "address",
          "_initialOwner": "address",
          "_payoutToken": "address",
          "_principleToken": "address"
        },
        "returns": {
          "_bond": "address",
          "_treasury": "address"
        }
      },
      "createBondAndTreasury(address,address,address,uint256[],uint256[])": {
        "params": {
          "_initialOwner": "address",
          "_payoutToken": "address",
          "_principleToken": "address"
        },
        "returns": {
          "_bond": "address",
          "_treasury": "address"
        }
      }
    },
    "version": 1
  },
  "userdoc": {
    "kind": "user",
    "methods": {
      "createBond(address,address,address,address,uint256[],uint256[])": {
        "notice": "deploys custom treasury and custom bond contracts and returns address of both"
      },
      "createBondAndTreasury(address,address,address,uint256[],uint256[])": {
        "notice": "deploys custom treasury and custom bond contracts and returns address of both"
      }
    },
    "version": 1
  },
  "storageLayout": {
    "storage": [
      {
        "astId": 28,
        "contract": "src/contracts/factory.sol:RomeProFactory",
        "label": "policy",
        "offset": 0,
        "slot": "0",
        "type": "t_address"
      }
    ],
    "types": {
      "t_address": {
        "encoding": "inplace",
        "label": "address",
        "numberOfBytes": "20"
      }
    }
  }
}